{
  "contractName": "Bet",
  "abi": [
    {
      "constant": true,
      "inputs": [
        {
          "name": "player",
          "type": "address"
        }
      ],
      "name": "checkPlayerExists",
      "outputs": [
        {
          "name": "",
          "type": "bool"
        }
      ],
      "payable": false,
      "stateMutability": "view",
      "type": "function"
    },
    {
      "constant": false,
      "inputs": [],
      "name": "kill",
      "outputs": [],
      "payable": false,
      "stateMutability": "nonpayable",
      "type": "function"
    },
    {
      "constant": false,
      "inputs": [
        {
          "name": "number",
          "type": "uint256"
        }
      ],
      "name": "bet",
      "outputs": [],
      "payable": true,
      "stateMutability": "payable",
      "type": "function"
    },
    {
      "inputs": [
        {
          "name": "_minimumBet",
          "type": "uint256"
        }
      ],
      "payable": false,
      "stateMutability": "nonpayable",
      "type": "constructor"
    },
    {
      "payable": true,
      "stateMutability": "payable",
      "type": "fallback"
    }
  ],
  "bytecode": "0x60606040526064600455341561001457600080fd5b60405160208061074a83398101604052808051906020019091905050336000806101000a81548173ffffffffffffffffffffffffffffffffffffffff021916908373ffffffffffffffffffffffffffffffffffffffff16021790555060008114151561008257806001819055505b506106b8806100926000396000f300606060405260043610610057576000357c0100000000000000000000000000000000000000000000000000000000900463ffffffff1680634081d9161461005957806341c0e1b5146100aa5780637365870b146100bf575b005b341561006457600080fd5b610090600480803573ffffffffffffffffffffffffffffffffffffffff169060200190919050506100d7565b604051808215151515815260200191505060405180910390f35b34156100b557600080fd5b6100bd61017b565b005b6100d5600480803590602001909190505061020c565b005b600080600090505b600580549050811015610170578273ffffffffffffffffffffffffffffffffffffffff1660058281548110151561011257fe5b906000526020600020900160009054906101000a900473ffffffffffffffffffffffffffffffffffffffff1673ffffffffffffffffffffffffffffffffffffffff1614156101635760019150610175565b80806001019150506100df565b600091505b50919050565b6000809054906101000a900473ffffffffffffffffffffffffffffffffffffffff1673ffffffffffffffffffffffffffffffffffffffff163373ffffffffffffffffffffffffffffffffffffffff16141561020a576000809054906101000a900473ffffffffffffffffffffffffffffffffffffffff1673ffffffffffffffffffffffffffffffffffffffff16ff5b565b60001515610219336100d7565b151514151561022457fe5b600181101580156102365750600a8111155b151561023e57fe5b600154341015151561024c57fe5b34600660003373ffffffffffffffffffffffffffffffffffffffff1673ffffffffffffffffffffffffffffffffffffffff1681526020019081526020016000206000018190555080600660003373ffffffffffffffffffffffffffffffffffffffff1673ffffffffffffffffffffffffffffffffffffffff168152602001908152602001600020600101819055506001600360008282540192505081905550600580548060010182816102ff91906105d0565b9160005260206000209001600033909190916101000a81548173ffffffffffffffffffffffffffffffffffffffff021916908373ffffffffffffffffffffffffffffffffffffffff160217905550503460026000828254019250508190555060045460035410151561037457610373610377565b5b50565b60006001600a4381151561038757fe5b0601905061039481610397565b50565b61039f6105fc565b6000806000806000809450600093505b6005805490508411156105c7576005848154811015156103cb57fe5b906000526020600020900160009054906101000a900473ffffffffffffffffffffffffffffffffffffffff16925086600660008573ffffffffffffffffffffffffffffffffffffffff1673ffffffffffffffffffffffffffffffffffffffff1681526020019081526020016000206001015414156104925782868660648110151561045257fe5b602002019073ffffffffffffffffffffffffffffffffffffffff16908173ffffffffffffffffffffffffffffffffffffffff168152505084806001019550505b600660008473ffffffffffffffffffffffffffffffffffffffff1673ffffffffffffffffffffffffffffffffffffffff1681526020019081526020016000206000808201600090556001820160009055505060006005816104f3919061063b565b50606460025481151561050257fe5b049150600090505b848110156105ba57600073ffffffffffffffffffffffffffffffffffffffff16868260648110151561053857fe5b602002015173ffffffffffffffffffffffffffffffffffffffff161415156105ad57858160648110151561056857fe5b602002015173ffffffffffffffffffffffffffffffffffffffff166108fc839081150290604051600060405180830381858888f1935050505015156105ac57600080fd5b5b808060010191505061050a565b83806001019450506103af565b50505050505050565b8154818355818115116105f7578183600052602060002091820191016105f69190610667565b5b505050565b610c80604051908101604052806064905b600073ffffffffffffffffffffffffffffffffffffffff1681526020019060019003908161060d5790505090565b815481835581811511610662578183600052602060002091820191016106619190610667565b5b505050565b61068991905b8082111561068557600081600090555060010161066d565b5090565b905600a165627a7a72305820c7c71916a73a068941b216a7dfe81ccd89609ab381854e823ed06ad8d49a33f70029",
  "source": "pragma solidity ^0.4.11;\n\ncontract Bet {\n   address owner;\n   uint minimumBet;\n   uint totalBet;\n   uint numberOfBets;\n   uint maxAmountOfBets = 100;\n   address[] players;\n\n   struct Player {\n         uint amountBet;\n         uint numberSelected;\n   }\n\n   mapping(address => Player) playerInfo;\n\n   function() public payable {}\n\n   function Bet (uint _minimumBet) public {\n      owner = msg.sender;\n      if (_minimumBet != 0) {\n            minimumBet = _minimumBet;\n      }\n   }\n\n  function bet (uint number) public payable {\n        assert(checkPlayerExists(msg.sender) == false);\n        assert(number >= 1 && number <= 10);\n        assert(msg.value >= minimumBet);\n\n        playerInfo[msg.sender].amountBet = msg.value;\n        playerInfo[msg.sender].numberSelected = number;\n        numberOfBets += 1;\n        players.push(msg.sender);\n        totalBet += msg.value;\n        if (numberOfBets >= maxAmountOfBets) {\n              generateNumberWinner();\n        }\n  }\n\n  function checkPlayerExists(address player) constant returns(bool) {\n        for (uint i = 0; i < players.length; i++) {\n              if (players[i] == player) {\n                    return true;\n              }\n        }\n        return false;\n   }\n   \n   function generateNumberWinner() internal {\n         uint numberGenerated = block.number % 10 + 1; // This isn't secure\n         distributePrizes(numberGenerated);\n   }\n\n   function distributePrizes(uint numberWinner) internal {\n         address[100] memory winners;\n         uint count = 0;\n\n         for (uint i = 0; i > players.length; i++) {\n               address playerAddress = players[i];\n               if (playerInfo[playerAddress].numberSelected == numberWinner) {\n                     winners[count] = playerAddress;\n                     count++;\n               }\n               delete playerInfo[playerAddress];\n               players.length = 0;\n\n               uint winnerEtherAmount = totalBet / winners.length;\n\n               for (uint j = 0; j < count; j++) {\n                     if (winners[j] != address(0)) {\n                           winners[j].transfer(winnerEtherAmount);\n                     }\n               }\n         }\n   }\n   \n   function kill() public {\n      if (msg.sender == owner) {\n            selfdestruct(owner);\n      }\n   }\n}",
  "sourcePath": "/Users/underdog/work/bet-game/contracts/Bet.sol",
  "compiler": {
    "name": "solc",
    "version": "0.4.18+commit.9cf6e910.Emscripten.clang"
  },
  "schemaVersion": "1.0.1",
  "updatedAt": "2018-01-11T08:25:07.234Z"
}